{
  "contractName": "Manufacturer",
  "abi": [
    {
      "constant": true,
      "inputs": [
        {
          "name": "",
          "type": "uint256"
        }
      ],
      "name": "batches",
      "outputs": [
        {
          "name": "batchId",
          "type": "uint256"
        },
        {
          "name": "manufactureAddress",
          "type": "string"
        },
        {
          "name": "dateOfManufacture",
          "type": "uint256"
        },
        {
          "name": "ExpirationDate",
          "type": "uint256"
        },
        {
          "name": "numberOfUnits",
          "type": "uint256"
        },
        {
          "name": "pricePerUnit",
          "type": "uint256"
        },
        {
          "name": "description",
          "type": "string"
        },
        {
          "name": "chemicalSupplierName",
          "type": "string"
        },
        {
          "name": "composition",
          "type": "string"
        }
      ],
      "payable": false,
      "stateMutability": "view",
      "type": "function"
    },
    {
      "constant": false,
      "inputs": [
        {
          "name": "_manufactureAddress",
          "type": "string"
        },
        {
          "name": "_dateOfManufacture",
          "type": "uint256"
        },
        {
          "name": "_ExpirationDate",
          "type": "uint256"
        },
        {
          "name": "_numberOfUnits",
          "type": "uint256"
        },
        {
          "name": "_pricePerUnit",
          "type": "uint256"
        },
        {
          "name": "_description",
          "type": "string"
        },
        {
          "name": "_chemicalSupplierName",
          "type": "string"
        },
        {
          "name": "_composition",
          "type": "string"
        }
      ],
      "name": "createBatch",
      "outputs": [
        {
          "name": "",
          "type": "bool"
        }
      ],
      "payable": false,
      "stateMutability": "nonpayable",
      "type": "function"
    },
    {
      "constant": true,
      "inputs": [
        {
          "name": "_batchId",
          "type": "uint256"
        }
      ],
      "name": "getQuantity",
      "outputs": [
        {
          "name": "",
          "type": "uint256"
        }
      ],
      "payable": false,
      "stateMutability": "view",
      "type": "function"
    },
    {
      "constant": false,
      "inputs": [
        {
          "name": "_batchId",
          "type": "uint256"
        },
        {
          "name": "_quantity",
          "type": "uint256"
        }
      ],
      "name": "updateQuantity",
      "outputs": [
        {
          "name": "",
          "type": "bool"
        }
      ],
      "payable": false,
      "stateMutability": "nonpayable",
      "type": "function"
    }
  ],
  "bytecode": "0x60806040526000805534801561001457600080fd5b50610ada806100246000396000f3fe608060405234801561001057600080fd5b506004361061004c5760003560e01c80635ebd9ded1461005157806379cd492114610093578063b32c4d8d146100e3578063d0280e80146102f1575b600080fd5b61007d6004803603602081101561006757600080fd5b81019080803590602001909291905050506105b2565b6040518082815260200191505060405180910390f35b6100c9600480360360408110156100a957600080fd5b8101908080359060200190929190803590602001909291905050506105d2565b604051808215151515815260200191505060405180910390f35b61010f600480360360208110156100f957600080fd5b81019080803590602001909291905050506105fe565b604051808a81526020018060200189815260200188815260200187815260200186815260200180602001806020018060200185810385528d818151815260200191508051906020019080838360005b8381101561017957808201518184015260208101905061015e565b50505050905090810190601f1680156101a65780820380516001836020036101000a031916815260200191505b50858103845288818151815260200191508051906020019080838360005b838110156101df5780820151818401526020810190506101c4565b50505050905090810190601f16801561020c5780820380516001836020036101000a031916815260200191505b50858103835287818151815260200191508051906020019080838360005b8381101561024557808201518184015260208101905061022a565b50505050905090810190601f1680156102725780820380516001836020036101000a031916815260200191505b50858103825286818151815260200191508051906020019080838360005b838110156102ab578082015181840152602081019050610290565b50505050905090810190601f1680156102d85780820380516001836020036101000a031916815260200191505b509d505050505050505050505050505060405180910390f35b610598600480360361010081101561030857600080fd5b810190808035906020019064010000000081111561032557600080fd5b82018360208201111561033757600080fd5b8035906020019184600183028401116401000000008311171561035957600080fd5b91908080601f016020809104026020016040519081016040528093929190818152602001838380828437600081840152601f19601f82011690508083019250505050505050919291929080359060200190929190803590602001909291908035906020019092919080359060200190929190803590602001906401000000008111156103e457600080fd5b8201836020820111156103f657600080fd5b8035906020019184600183028401116401000000008311171561041857600080fd5b91908080601f016020809104026020016040519081016040528093929190818152602001838380828437600081840152601f19601f8201169050808301925050505050505091929192908035906020019064010000000081111561047b57600080fd5b82018360208201111561048d57600080fd5b803590602001918460018302840111640100000000831117156104af57600080fd5b91908080601f016020809104026020016040519081016040528093929190818152602001838380828437600081840152601f19601f8201169050808301925050505050505091929192908035906020019064010000000081111561051257600080fd5b82018360208201111561052457600080fd5b8035906020019184600183028401116401000000008311171561054657600080fd5b91908080601f016020809104026020016040519081016040528093929190818152602001838380828437600081840152601f19601f8201169050808301925050505050505091929192905050506108ac565b604051808215151515815260200191505060405180910390f35b600060016000838152602001908152602001600020600401549050919050565b600081600160008581526020019081526020016000206004016000828254039250508190555092915050565b6001602052806000526040600020600091509050806000015490806001018054600181600116156101000203166002900480601f0160208091040260200160405190810160405280929190818152602001828054600181600116156101000203166002900480156106b05780601f10610685576101008083540402835291602001916106b0565b820191906000526020600020905b81548152906001019060200180831161069357829003601f168201915b505050505090806002015490806003015490806004015490806005015490806006018054600181600116156101000203166002900480601f0160208091040260200160405190810160405280929190818152602001828054600181600116156101000203166002900480156107665780601f1061073b57610100808354040283529160200191610766565b820191906000526020600020905b81548152906001019060200180831161074957829003601f168201915b505050505090806007018054600181600116156101000203166002900480601f0160208091040260200160405190810160405280929190818152602001828054600181600116156101000203166002900480156108045780601f106107d957610100808354040283529160200191610804565b820191906000526020600020905b8154815290600101906020018083116107e757829003601f168201915b505050505090806008018054600181600116156101000203166002900480601f0160208091040260200160405190810160405280929190818152602001828054600181600116156101000203166002900480156108a25780601f10610877576101008083540402835291602001916108a2565b820191906000526020600020905b81548152906001019060200180831161088557829003601f168201915b5050505050905089565b600080600081548092919060010191905055506000546001600080548152602001908152602001600020600001819055508860016000805481526020019081526020016000206001019080519060200190610908929190610a09565b508760016000805481526020019081526020016000206002018190555086600160008054815260200190815260200160002060030181905550856001600080548152602001908152602001600020600401819055508460016000805481526020019081526020016000206005018190555083600160008054815260200190815260200160002060060190805190602001906109a4929190610a09565b5082600160008054815260200190815260200160002060070190805190602001906109d0929190610a09565b5081600160008054815260200190815260200160002060080190805190602001906109fc929190610a09565b5098975050505050505050565b828054600181600116156101000203166002900490600052602060002090601f016020900481019282601f10610a4a57805160ff1916838001178555610a78565b82800160010185558215610a78579182015b82811115610a77578251825591602001919060010190610a5c565b5b509050610a859190610a89565b5090565b610aab91905b80821115610aa7576000816000905550600101610a8f565b5090565b9056fea165627a7a7230582086ce39c639c847ac9ba88b35f1a65b441dc39c7a020bae28a72feaec1c7fa69f0029",
  "source": "pragma solidity >=0.4.22 <0.6.0;\r\n\r\ncontract Manufacturer{\r\n    uint i = 0;\r\n    \r\n    mapping(uint=>Batch) public batches;\r\n    //mapping(uint=>)\r\n    struct Batch{\r\n        uint batchId;\r\n        //string medicineName;\r\n        string manufactureAddress;\r\n        uint dateOfManufacture;\r\n        uint ExpirationDate;\r\n        uint numberOfUnits;\r\n        uint pricePerUnit;\r\n        string description;\r\n        string chemicalSupplierName;\r\n        //string status;\r\n        string composition;\r\n    }\r\n\r\n    \r\n    function createBatch(\r\n        string memory _manufactureAddress,\r\n        uint _dateOfManufacture,\r\n        uint _ExpirationDate,\r\n        uint _numberOfUnits,\r\n        uint _pricePerUnit,\r\n        string memory _description,\r\n        string memory _chemicalSupplierName,\r\n        string memory _composition) public returns (bool){\r\n        \r\n        i++;\r\n        batches[i].batchId = i; \r\n        //batches[i].medicineName = _medicineName; \r\n        batches[i].manufactureAddress = _manufactureAddress;\r\n        batches[i].dateOfManufacture =  _dateOfManufacture;\r\n        batches[i].ExpirationDate = _ExpirationDate;\r\n        batches[i].numberOfUnits = _numberOfUnits;\r\n        batches[i].pricePerUnit = _pricePerUnit;\r\n        batches[i].description = _description;\r\n        batches[i].chemicalSupplierName = _chemicalSupplierName;\r\n        batches[i].composition = _composition ;\r\n    }\r\n    \r\n    function getQuantity(uint _batchId) public view returns(uint){\r\n        return batches[_batchId].numberOfUnits;\r\n    }\r\n    \r\n    function updateQuantity(uint _batchId, uint _quantity) public returns (bool){\r\n        batches[_batchId].numberOfUnits -= _quantity;\r\n    }\r\n}",
  "sourcePath": "C:\\Users\\Dhwani\\Desktop\\project\\Medicine_SCM\\contracts\\Manufacturer.sol",
  "compiler": {
    "name": "solc",
    "version": "0.5.8+commit.23d335f2.Emscripten.clang"
  },
  "schemaVersion": "3.0.11",
  "updatedAt": "2019-10-06T05:34:37.025Z",
  "devdoc": {
    "methods": {}
  },
  "userdoc": {
    "methods": {}
  }
}