{
  "contractName": "Manufacturer",
  "abi": [
    {
      "constant": true,
      "inputs": [
        {
          "name": "",
          "type": "uint256"
        }
      ],
      "name": "batches",
      "outputs": [
        {
          "name": "batchId",
          "type": "uint256"
        },
        {
          "name": "medicineName",
          "type": "string"
        },
        {
          "name": "manufactureAddress",
          "type": "string"
        },
        {
          "name": "dateOfManufacture",
          "type": "uint256"
        },
        {
          "name": "ExpirationDate",
          "type": "uint256"
        },
        {
          "name": "numberOfUnits",
          "type": "uint256"
        },
        {
          "name": "pricePerUnit",
          "type": "uint256"
        },
        {
          "name": "description",
          "type": "string"
        },
        {
          "name": "chemicalSupplierName",
          "type": "string"
        }
      ],
      "payable": false,
      "stateMutability": "view",
      "type": "function"
    },
    {
      "constant": false,
      "inputs": [
        {
          "name": "_medicineName",
          "type": "string"
        },
        {
          "name": "_manufactureAddress",
          "type": "string"
        },
        {
          "name": "_dateOfManufacture",
          "type": "uint256"
        },
        {
          "name": "_ExpirationDate",
          "type": "uint256"
        },
        {
          "name": "_numberOfUnits",
          "type": "uint256"
        },
        {
          "name": "_pricePerUnit",
          "type": "uint256"
        },
        {
          "name": "_description",
          "type": "string"
        },
        {
          "name": "_chemicalSupplierName",
          "type": "string"
        },
        {
          "name": "_composition",
          "type": "string"
        },
        {
          "name": "_status",
          "type": "string"
        }
      ],
      "name": "createBatch",
      "outputs": [
        {
          "name": "",
          "type": "bool"
        }
      ],
      "payable": false,
      "stateMutability": "nonpayable",
      "type": "function"
    },
    {
      "constant": true,
      "inputs": [
        {
          "name": "_batchId",
          "type": "uint256"
        }
      ],
      "name": "getQuantity",
      "outputs": [
        {
          "name": "",
          "type": "uint256"
        }
      ],
      "payable": false,
      "stateMutability": "view",
      "type": "function"
    },
    {
      "constant": false,
      "inputs": [
        {
          "name": "_batchId",
          "type": "uint256"
        },
        {
          "name": "_quantity",
          "type": "uint256"
        }
      ],
      "name": "updateQuantity",
      "outputs": [
        {
          "name": "",
          "type": "bool"
        }
      ],
      "payable": false,
      "stateMutability": "nonpayable",
      "type": "function"
    }
  ],
  "bytecode": "0x60806040526000805534801561001457600080fd5b50610c0a806100246000396000f3fe608060405234801561001057600080fd5b506004361061004c5760003560e01c80635ebd9ded1461005157806379cd4921146100935780639cbf5691146100e3578063b32c4d8d146104d2575b600080fd5b61007d6004803603602081101561006757600080fd5b81019080803590602001909291905050506106e0565b6040518082815260200191505060405180910390f35b6100c9600480360360408110156100a957600080fd5b810190808035906020019092919080359060200190929190505050610700565b604051808215151515815260200191505060405180910390f35b6104b860048036036101408110156100fa57600080fd5b810190808035906020019064010000000081111561011757600080fd5b82018360208201111561012957600080fd5b8035906020019184600183028401116401000000008311171561014b57600080fd5b91908080601f016020809104026020016040519081016040528093929190818152602001838380828437600081840152601f19601f820116905080830192505050505050509192919290803590602001906401000000008111156101ae57600080fd5b8201836020820111156101c057600080fd5b803590602001918460018302840111640100000000831117156101e257600080fd5b91908080601f016020809104026020016040519081016040528093929190818152602001838380828437600081840152601f19601f820116905080830192505050505050509192919290803590602001909291908035906020019092919080359060200190929190803590602001909291908035906020019064010000000081111561026d57600080fd5b82018360208201111561027f57600080fd5b803590602001918460018302840111640100000000831117156102a157600080fd5b91908080601f016020809104026020016040519081016040528093929190818152602001838380828437600081840152601f19601f8201169050808301925050505050505091929192908035906020019064010000000081111561030457600080fd5b82018360208201111561031657600080fd5b8035906020019184600183028401116401000000008311171561033857600080fd5b91908080601f016020809104026020016040519081016040528093929190818152602001838380828437600081840152601f19601f8201169050808301925050505050505091929192908035906020019064010000000081111561039b57600080fd5b8201836020820111156103ad57600080fd5b803590602001918460018302840111640100000000831117156103cf57600080fd5b91908080601f016020809104026020016040519081016040528093929190818152602001838380828437600081840152601f19601f8201169050808301925050505050505091929192908035906020019064010000000081111561043257600080fd5b82018360208201111561044457600080fd5b8035906020019184600183028401116401000000008311171561046657600080fd5b91908080601f016020809104026020016040519081016040528093929190818152602001838380828437600081840152601f19601f82011690508083019250505050505050919291929050505061072c565b604051808215151515815260200191505060405180910390f35b6104fe600480360360208110156104e857600080fd5b810190808035906020019092919050505061088b565b604051808a81526020018060200180602001898152602001888152602001878152602001868152602001806020018060200185810385528d818151815260200191508051906020019080838360005b8381101561056857808201518184015260208101905061054d565b50505050905090810190601f1680156105955780820380516001836020036101000a031916815260200191505b5085810384528c818151815260200191508051906020019080838360005b838110156105ce5780820151818401526020810190506105b3565b50505050905090810190601f1680156105fb5780820380516001836020036101000a031916815260200191505b50858103835287818151815260200191508051906020019080838360005b83811015610634578082015181840152602081019050610619565b50505050905090810190601f1680156106615780820380516001836020036101000a031916815260200191505b50858103825286818151815260200191508051906020019080838360005b8381101561069a57808201518184015260208101905061067f565b50505050905090810190601f1680156106c75780820380516001836020036101000a031916815260200191505b509d505050505050505050505050505060405180910390f35b600060016000838152602001908152602001600020600501549050919050565b600081600160008581526020019081526020016000206005016000828254039250508190555092915050565b600080600081548092919060010191905055506000546001600080548152602001908152602001600020600001819055508a60016000805481526020019081526020016000206001019080519060200190610788929190610b39565b5089600160008054815260200190815260200160002060020190805190602001906107b4929190610b39565b50886001600080548152602001908152602001600020600301819055508760016000805481526020019081526020016000206004018190555086600160008054815260200190815260200160002060050181905550856001600080548152602001908152602001600020600601819055508460016000805481526020019081526020016000206007019080519060200190610850929190610b39565b50836001600080548152602001908152602001600020600801908051906020019061087c929190610b39565b509a9950505050505050505050565b6001602052806000526040600020600091509050806000015490806001018054600181600116156101000203166002900480601f01602080910402602001604051908101604052809291908181526020018280546001816001161561010002031660029004801561093d5780601f106109125761010080835404028352916020019161093d565b820191906000526020600020905b81548152906001019060200180831161092057829003601f168201915b505050505090806002018054600181600116156101000203166002900480601f0160208091040260200160405190810160405280929190818152602001828054600181600116156101000203166002900480156109db5780601f106109b0576101008083540402835291602001916109db565b820191906000526020600020905b8154815290600101906020018083116109be57829003601f168201915b505050505090806003015490806004015490806005015490806006015490806007018054600181600116156101000203166002900480601f016020809104026020016040519081016040528092919081815260200182805460018160011615610100020316600290048015610a915780601f10610a6657610100808354040283529160200191610a91565b820191906000526020600020905b815481529060010190602001808311610a7457829003601f168201915b505050505090806008018054600181600116156101000203166002900480601f016020809104026020016040519081016040528092919081815260200182805460018160011615610100020316600290048015610b2f5780601f10610b0457610100808354040283529160200191610b2f565b820191906000526020600020905b815481529060010190602001808311610b1257829003601f168201915b5050505050905089565b828054600181600116156101000203166002900490600052602060002090601f016020900481019282601f10610b7a57805160ff1916838001178555610ba8565b82800160010185558215610ba8579182015b82811115610ba7578251825591602001919060010190610b8c565b5b509050610bb59190610bb9565b5090565b610bdb91905b80821115610bd7576000816000905550600101610bbf565b5090565b9056fea165627a7a7230582047b79099704b18baab4b0362fa24129eaba69d291461dd8033850fb0e07777230029",
  "source": "pragma solidity >=0.4.22 <0.6.0;\r\n\r\ncontract Manufacturer{\r\n    uint i = 0;\r\n    \r\n    mapping(uint=>Batch) public batches;\r\n    //mapping(uint=>)\r\n    struct Batch{\r\n        uint batchId;\r\n        string medicineName;\r\n        string manufactureAddress;\r\n        uint dateOfManufacture;\r\n        uint ExpirationDate;\r\n        uint numberOfUnits;\r\n        uint pricePerUnit;\r\n        string description;\r\n        string chemicalSupplierName;\r\n        //string status;\r\n        //string composition;\r\n    }\r\n\r\n    \r\n    function createBatch(\r\n        string memory _medicineName,\r\n        string memory _manufactureAddress,\r\n        uint _dateOfManufacture,\r\n        uint _ExpirationDate,\r\n        uint _numberOfUnits,\r\n        uint _pricePerUnit,\r\n        string memory _description,\r\n        string memory _chemicalSupplierName,\r\n        string memory _composition,\r\n        string memory _status) public returns (bool){\r\n        \r\n        i++;\r\n        batches[i].batchId = i; \r\n        batches[i].medicineName = _medicineName; \r\n        batches[i].manufactureAddress = _manufactureAddress;\r\n        batches[i].dateOfManufacture =  _dateOfManufacture;\r\n        batches[i].ExpirationDate = _ExpirationDate;\r\n        batches[i].numberOfUnits = _numberOfUnits;\r\n        batches[i].pricePerUnit = _pricePerUnit;\r\n        batches[i].description = _description;\r\n        batches[i].chemicalSupplierName = _chemicalSupplierName;\r\n        //batches[i].quality = _quality;\r\n        //batches[i].status = _status ;\r\n    }\r\n    \r\n    function getQuantity(uint _batchId) public view returns(uint){\r\n        return batches[_batchId].numberOfUnits;\r\n    }\r\n    \r\n    function updateQuantity(uint _batchId, uint _quantity) public returns (bool){\r\n        batches[_batchId].numberOfUnits -= _quantity;\r\n    }\r\n}",
  "sourcePath": "C:\\Users\\Dhwani\\Desktop\\project\\Medicine_SCM\\contracts\\Manufacturer.sol",
  "compiler": {
    "name": "solc",
    "version": "0.5.8+commit.23d335f2.Emscripten.clang"
  },
  "schemaVersion": "3.0.11",
  "updatedAt": "2019-10-06T02:15:16.169Z",
  "devdoc": {
    "methods": {}
  },
  "userdoc": {
    "methods": {}
  }
}