{
  "contractName": "Manufacturer",
  "abi": [
    {
      "constant": true,
      "inputs": [
        {
          "name": "",
          "type": "uint256"
        }
      ],
      "name": "batches",
      "outputs": [
        {
          "name": "batchId",
          "type": "uint256"
        },
        {
          "name": "medicineName",
          "type": "string"
        },
        {
          "name": "manufactureAddress",
          "type": "string"
        },
        {
          "name": "dateOfManufacture",
          "type": "uint256"
        },
        {
          "name": "ExpirationDate",
          "type": "uint256"
        },
        {
          "name": "numberOfUnits",
          "type": "uint256"
        },
        {
          "name": "pricePerUnit",
          "type": "uint256"
        },
        {
          "name": "description",
          "type": "string"
        },
        {
          "name": "chemicalSupplierName",
          "type": "string"
        }
      ],
      "payable": false,
      "stateMutability": "view",
      "type": "function"
    },
    {
      "constant": false,
      "inputs": [
        {
          "name": "_medicineName",
          "type": "string"
        },
        {
          "name": "_manufactureAddress",
          "type": "string"
        },
        {
          "name": "_dateOfManufacture",
          "type": "uint256"
        },
        {
          "name": "_ExpirationDate",
          "type": "uint256"
        },
        {
          "name": "_numberOfUnits",
          "type": "uint256"
        },
        {
          "name": "_pricePerUnit",
          "type": "uint256"
        },
        {
          "name": "_description",
          "type": "string"
        },
        {
          "name": "_chemicalSupplierName",
          "type": "string"
        }
      ],
      "name": "createBatch",
      "outputs": [
        {
          "name": "",
          "type": "bool"
        }
      ],
      "payable": false,
      "stateMutability": "nonpayable",
      "type": "function"
    },
    {
      "constant": true,
      "inputs": [
        {
          "name": "_batchId",
          "type": "uint256"
        }
      ],
      "name": "getQuantity",
      "outputs": [
        {
          "name": "",
          "type": "uint256"
        }
      ],
      "payable": false,
      "stateMutability": "view",
      "type": "function"
    },
    {
      "constant": false,
      "inputs": [
        {
          "name": "_batchId",
          "type": "uint256"
        },
        {
          "name": "_quantity",
          "type": "uint256"
        }
      ],
      "name": "updateQuantity",
      "outputs": [
        {
          "name": "",
          "type": "bool"
        }
      ],
      "payable": false,
      "stateMutability": "nonpayable",
      "type": "function"
    }
  ],
  "bytecode": "0x60806040526000805534801561001457600080fd5b50610ada806100246000396000f3fe608060405234801561001057600080fd5b506004361061004c5760003560e01c806342ce0d89146100515780635ebd9ded1461031257806379cd492114610354578063b32c4d8d146103a4575b600080fd5b6102f8600480360361010081101561006857600080fd5b810190808035906020019064010000000081111561008557600080fd5b82018360208201111561009757600080fd5b803590602001918460018302840111640100000000831117156100b957600080fd5b91908080601f016020809104026020016040519081016040528093929190818152602001838380828437600081840152601f19601f8201169050808301925050505050505091929192908035906020019064010000000081111561011c57600080fd5b82018360208201111561012e57600080fd5b8035906020019184600183028401116401000000008311171561015057600080fd5b91908080601f016020809104026020016040519081016040528093929190818152602001838380828437600081840152601f19601f82011690508083019250505050505050919291929080359060200190929190803590602001909291908035906020019092919080359060200190929190803590602001906401000000008111156101db57600080fd5b8201836020820111156101ed57600080fd5b8035906020019184600183028401116401000000008311171561020f57600080fd5b91908080601f016020809104026020016040519081016040528093929190818152602001838380828437600081840152601f19601f8201169050808301925050505050505091929192908035906020019064010000000081111561027257600080fd5b82018360208201111561028457600080fd5b803590602001918460018302840111640100000000831117156102a657600080fd5b91908080601f016020809104026020016040519081016040528093929190818152602001838380828437600081840152601f19601f8201169050808301925050505050505091929192905050506105b2565b604051808215151515815260200191505060405180910390f35b61033e6004803603602081101561032857600080fd5b810190808035906020019092919050505061070f565b6040518082815260200191505060405180910390f35b61038a6004803603604081101561036a57600080fd5b81019080803590602001909291908035906020019092919050505061072f565b604051808215151515815260200191505060405180910390f35b6103d0600480360360208110156103ba57600080fd5b810190808035906020019092919050505061075b565b604051808a81526020018060200180602001898152602001888152602001878152602001868152602001806020018060200185810385528d818151815260200191508051906020019080838360005b8381101561043a57808201518184015260208101905061041f565b50505050905090810190601f1680156104675780820380516001836020036101000a031916815260200191505b5085810384528c818151815260200191508051906020019080838360005b838110156104a0578082015181840152602081019050610485565b50505050905090810190601f1680156104cd5780820380516001836020036101000a031916815260200191505b50858103835287818151815260200191508051906020019080838360005b838110156105065780820151818401526020810190506104eb565b50505050905090810190601f1680156105335780820380516001836020036101000a031916815260200191505b50858103825286818151815260200191508051906020019080838360005b8381101561056c578082015181840152602081019050610551565b50505050905090810190601f1680156105995780820380516001836020036101000a031916815260200191505b509d505050505050505050505050505060405180910390f35b60008060008154809291906001019190505550600054600160008054815260200190815260200160002060000181905550886001600080548152602001908152602001600020600101908051906020019061060e929190610a09565b50876001600080548152602001908152602001600020600201908051906020019061063a929190610a09565b508660016000805481526020019081526020016000206003018190555085600160008054815260200190815260200160002060040181905550846001600080548152602001908152602001600020600501819055508360016000805481526020019081526020016000206006018190555082600160008054815260200190815260200160002060070190805190602001906106d6929190610a09565b508160016000805481526020019081526020016000206008019080519060200190610702929190610a09565b5098975050505050505050565b600060016000838152602001908152602001600020600501549050919050565b600081600160008581526020019081526020016000206005016000828254039250508190555092915050565b6001602052806000526040600020600091509050806000015490806001018054600181600116156101000203166002900480601f01602080910402602001604051908101604052809291908181526020018280546001816001161561010002031660029004801561080d5780601f106107e25761010080835404028352916020019161080d565b820191906000526020600020905b8154815290600101906020018083116107f057829003601f168201915b505050505090806002018054600181600116156101000203166002900480601f0160208091040260200160405190810160405280929190818152602001828054600181600116156101000203166002900480156108ab5780601f10610880576101008083540402835291602001916108ab565b820191906000526020600020905b81548152906001019060200180831161088e57829003601f168201915b505050505090806003015490806004015490806005015490806006015490806007018054600181600116156101000203166002900480601f0160208091040260200160405190810160405280929190818152602001828054600181600116156101000203166002900480156109615780601f1061093657610100808354040283529160200191610961565b820191906000526020600020905b81548152906001019060200180831161094457829003601f168201915b505050505090806008018054600181600116156101000203166002900480601f0160208091040260200160405190810160405280929190818152602001828054600181600116156101000203166002900480156109ff5780601f106109d4576101008083540402835291602001916109ff565b820191906000526020600020905b8154815290600101906020018083116109e257829003601f168201915b5050505050905089565b828054600181600116156101000203166002900490600052602060002090601f016020900481019282601f10610a4a57805160ff1916838001178555610a78565b82800160010185558215610a78579182015b82811115610a77578251825591602001919060010190610a5c565b5b509050610a859190610a89565b5090565b610aab91905b80821115610aa7576000816000905550600101610a8f565b5090565b9056fea165627a7a72305820a09ef16da0abcdf0e0da83854d8ee53e27857cf5d92cd5ef321acc457405beb60029",
  "source": "pragma solidity >=0.4.22 <0.6.0;\r\n\r\ncontract Manufacturer{\r\n    uint i = 0;\r\n    \r\n    mapping(uint=>Batch) public batches;\r\n    struct Batch{\r\n        uint batchId;\r\n        string medicineName;\r\n        string manufactureAddress;\r\n        uint dateOfManufacture;\r\n        uint ExpirationDate;\r\n        uint numberOfUnits;\r\n        uint pricePerUnit;\r\n        string description;\r\n        string chemicalSupplierName;\r\n    }\r\n\r\n    \r\n    function createBatch(\r\n        string memory _medicineName,\r\n        string memory _manufactureAddress,\r\n        uint _dateOfManufacture,\r\n        uint _ExpirationDate,\r\n        uint _numberOfUnits,\r\n        uint _pricePerUnit,\r\n        string memory _description,\r\n        string memory _chemicalSupplierName) public returns (bool){\r\n        \r\n        i++;\r\n        batches[i].batchId = i; \r\n        batches[i].medicineName = _medicineName; \r\n        batches[i].manufactureAddress = _manufactureAddress;\r\n        batches[i].dateOfManufacture =  _dateOfManufacture;\r\n        batches[i].ExpirationDate = _ExpirationDate;\r\n        batches[i].numberOfUnits = _numberOfUnits;\r\n        batches[i].pricePerUnit = _pricePerUnit;\r\n        batches[i].description = _description;\r\n        batches[i].chemicalSupplierName = _chemicalSupplierName;\r\n        \r\n    }\r\n    \r\n    function getQuantity(uint _batchId) public view returns(uint){\r\n        return batches[_batchId].numberOfUnits;\r\n    }\r\n    \r\n    function updateQuantity(uint _batchId, uint _quantity) public returns (bool){\r\n        batches[_batchId].numberOfUnits -= _quantity;\r\n    }\r\n}",
  "sourcePath": "C:\\Users\\Dhwani\\Desktop\\project\\Medicine_SCM\\contracts\\Manufacturer.sol",
  "compiler": {
    "name": "solc",
    "version": "0.5.8+commit.23d335f2.Emscripten.clang"
  },
  "schemaVersion": "3.0.11",
  "updatedAt": "2019-10-05T13:05:14.326Z",
  "devdoc": {
    "methods": {}
  },
  "userdoc": {
    "methods": {}
  }
}