{
  "contractName": "Manufacturer",
  "abi": [
    {
      "constant": true,
      "inputs": [
        {
          "name": "",
          "type": "uint256"
        }
      ],
      "name": "batches",
      "outputs": [
        {
          "name": "batchId",
          "type": "uint256"
        },
        {
          "name": "medicineName",
          "type": "string"
        },
        {
          "name": "manufactureAddress",
          "type": "string"
        },
        {
          "name": "dateOfManufacture",
          "type": "uint256"
        },
        {
          "name": "ExpirationDate",
          "type": "uint256"
        },
        {
          "name": "numberOfUnits",
          "type": "uint256"
        },
        {
          "name": "pricePerUnit",
          "type": "uint256"
        },
        {
          "name": "description",
          "type": "string"
        },
        {
          "name": "chemicalSupplierName",
          "type": "string"
        },
        {
          "name": "status",
          "type": "string"
        }
      ],
      "payable": false,
      "stateMutability": "view",
      "type": "function"
    },
    {
      "constant": false,
      "inputs": [
        {
          "name": "_medicineName",
          "type": "string"
        },
        {
          "name": "_manufactureAddress",
          "type": "string"
        },
        {
          "name": "_dateOfManufacture",
          "type": "uint256"
        },
        {
          "name": "_ExpirationDate",
          "type": "uint256"
        },
        {
          "name": "_numberOfUnits",
          "type": "uint256"
        },
        {
          "name": "_pricePerUnit",
          "type": "uint256"
        },
        {
          "name": "_description",
          "type": "string"
        },
        {
          "name": "_chemicalSupplierName",
          "type": "string"
        },
        {
          "name": "_status",
          "type": "string"
        }
      ],
      "name": "createBatch",
      "outputs": [
        {
          "name": "",
          "type": "bool"
        }
      ],
      "payable": false,
      "stateMutability": "nonpayable",
      "type": "function"
    },
    {
      "constant": true,
      "inputs": [
        {
          "name": "_batchId",
          "type": "uint256"
        }
      ],
      "name": "getQuantity",
      "outputs": [
        {
          "name": "",
          "type": "uint256"
        }
      ],
      "payable": false,
      "stateMutability": "view",
      "type": "function"
    },
    {
      "constant": false,
      "inputs": [
        {
          "name": "_batchId",
          "type": "uint256"
        },
        {
          "name": "_quantity",
          "type": "uint256"
        }
      ],
      "name": "updateQuantity",
      "outputs": [
        {
          "name": "",
          "type": "bool"
        }
      ],
      "payable": false,
      "stateMutability": "nonpayable",
      "type": "function"
    }
  ],
  "bytecode": "0x60806040526000805534801561001457600080fd5b50610ca8806100246000396000f3fe608060405234801561001057600080fd5b506004361061004c5760003560e01c80635ebd9ded1461005157806379cd492114610093578063b32c4d8d146100e3578063f1b00c701461035d575b600080fd5b61007d6004803603602081101561006757600080fd5b81019080803590602001909291905050506106b5565b6040518082815260200191505060405180910390f35b6100c9600480360360408110156100a957600080fd5b8101908080359060200190929190803590602001909291905050506106d5565b604051808215151515815260200191505060405180910390f35b61010f600480360360208110156100f957600080fd5b8101908080359060200190929190505050610701565b604051808b815260200180602001806020018a815260200189815260200188815260200187815260200180602001806020018060200186810386528f818151815260200191508051906020019080838360005b8381101561017d578082015181840152602081019050610162565b50505050905090810190601f1680156101aa5780820380516001836020036101000a031916815260200191505b5086810385528e818151815260200191508051906020019080838360005b838110156101e35780820151818401526020810190506101c8565b50505050905090810190601f1680156102105780820380516001836020036101000a031916815260200191505b50868103845289818151815260200191508051906020019080838360005b8381101561024957808201518184015260208101905061022e565b50505050905090810190601f1680156102765780820380516001836020036101000a031916815260200191505b50868103835288818151815260200191508051906020019080838360005b838110156102af578082015181840152602081019050610294565b50505050905090810190601f1680156102dc5780820380516001836020036101000a031916815260200191505b50868103825287818151815260200191508051906020019080838360005b838110156103155780820151818401526020810190506102fa565b50505050905090810190601f1680156103425780820380516001836020036101000a031916815260200191505b509f5050505050505050505050505050505060405180910390f35b61069b600480360361012081101561037457600080fd5b810190808035906020019064010000000081111561039157600080fd5b8201836020820111156103a357600080fd5b803590602001918460018302840111640100000000831117156103c557600080fd5b91908080601f016020809104026020016040519081016040528093929190818152602001838380828437600081840152601f19601f8201169050808301925050505050505091929192908035906020019064010000000081111561042857600080fd5b82018360208201111561043a57600080fd5b8035906020019184600183028401116401000000008311171561045c57600080fd5b91908080601f016020809104026020016040519081016040528093929190818152602001838380828437600081840152601f19601f82011690508083019250505050505050919291929080359060200190929190803590602001909291908035906020019092919080359060200190929190803590602001906401000000008111156104e757600080fd5b8201836020820111156104f957600080fd5b8035906020019184600183028401116401000000008311171561051b57600080fd5b91908080601f016020809104026020016040519081016040528093929190818152602001838380828437600081840152601f19601f8201169050808301925050505050505091929192908035906020019064010000000081111561057e57600080fd5b82018360208201111561059057600080fd5b803590602001918460018302840111640100000000831117156105b257600080fd5b91908080601f016020809104026020016040519081016040528093929190818152602001838380828437600081840152601f19601f8201169050808301925050505050505091929192908035906020019064010000000081111561061557600080fd5b82018360208201111561062757600080fd5b8035906020019184600183028401116401000000008311171561064957600080fd5b91908080601f016020809104026020016040519081016040528093929190818152602001838380828437600081840152601f19601f820116905080830192505050505050509192919290505050610a4d565b604051808215151515815260200191505060405180910390f35b600060016000838152602001908152602001600020600501549050919050565b600081600160008581526020019081526020016000206005016000828254039250508190555092915050565b6001602052806000526040600020600091509050806000015490806001018054600181600116156101000203166002900480601f0160208091040260200160405190810160405280929190818152602001828054600181600116156101000203166002900480156107b35780601f10610788576101008083540402835291602001916107b3565b820191906000526020600020905b81548152906001019060200180831161079657829003601f168201915b505050505090806002018054600181600116156101000203166002900480601f0160208091040260200160405190810160405280929190818152602001828054600181600116156101000203166002900480156108515780601f1061082657610100808354040283529160200191610851565b820191906000526020600020905b81548152906001019060200180831161083457829003601f168201915b505050505090806003015490806004015490806005015490806006015490806007018054600181600116156101000203166002900480601f0160208091040260200160405190810160405280929190818152602001828054600181600116156101000203166002900480156109075780601f106108dc57610100808354040283529160200191610907565b820191906000526020600020905b8154815290600101906020018083116108ea57829003601f168201915b505050505090806008018054600181600116156101000203166002900480601f0160208091040260200160405190810160405280929190818152602001828054600181600116156101000203166002900480156109a55780601f1061097a576101008083540402835291602001916109a5565b820191906000526020600020905b81548152906001019060200180831161098857829003601f168201915b505050505090806009018054600181600116156101000203166002900480601f016020809104026020016040519081016040528092919081815260200182805460018160011615610100020316600290048015610a435780601f10610a1857610100808354040283529160200191610a43565b820191906000526020600020905b815481529060010190602001808311610a2657829003601f168201915b505050505090508a565b600080600081548092919060010191905055506000546001600080548152602001908152602001600020600001819055508960016000805481526020019081526020016000206001019080519060200190610aa9929190610bd7565b508860016000805481526020019081526020016000206002019080519060200190610ad5929190610bd7565b50876001600080548152602001908152602001600020600301819055508660016000805481526020019081526020016000206004018190555085600160008054815260200190815260200160002060050181905550846001600080548152602001908152602001600020600601819055508360016000805481526020019081526020016000206007019080519060200190610b71929190610bd7565b508260016000805481526020019081526020016000206008019080519060200190610b9d929190610bd7565b508160016000805481526020019081526020016000206009019080519060200190610bc9929190610bd7565b509998505050505050505050565b828054600181600116156101000203166002900490600052602060002090601f016020900481019282601f10610c1857805160ff1916838001178555610c46565b82800160010185558215610c46579182015b82811115610c45578251825591602001919060010190610c2a565b5b509050610c539190610c57565b5090565b610c7991905b80821115610c75576000816000905550600101610c5d565b5090565b9056fea165627a7a723058202aa379de02dd55f22fb11ef02d1037c4f8b90099205c377085d88a1c8b413b050029",
  "source": "pragma solidity >=0.4.22 <0.6.0;\r\n\r\ncontract Manufacturer{\r\n    uint i = 0;\r\n    \r\n    mapping(uint=>Batch) public batches;\r\n    struct Batch{\r\n        uint batchId;\r\n        string medicineName;\r\n        string manufactureAddress;\r\n        uint dateOfManufacture;\r\n        uint ExpirationDate;\r\n        uint numberOfUnits;\r\n        uint pricePerUnit;\r\n        string description;\r\n        string chemicalSupplierName;\r\n        string status;\r\n    }\r\n\r\n    \r\n    function createBatch(\r\n        string memory _medicineName,\r\n        string memory _manufactureAddress,\r\n        uint _dateOfManufacture,\r\n        uint _ExpirationDate,\r\n        uint _numberOfUnits,\r\n        uint _pricePerUnit,\r\n        string memory _description,\r\n        string memory _chemicalSupplierName,\r\n        string memory _status) public returns (bool){\r\n        \r\n        i++;\r\n        batches[i].batchId = i; \r\n        batches[i].medicineName = _medicineName; \r\n        batches[i].manufactureAddress = _manufactureAddress;\r\n        batches[i].dateOfManufacture =  _dateOfManufacture;\r\n        batches[i].ExpirationDate = _ExpirationDate;\r\n        batches[i].numberOfUnits = _numberOfUnits;\r\n        batches[i].pricePerUnit = _pricePerUnit;\r\n        batches[i].description = _description;\r\n        batches[i].chemicalSupplierName = _chemicalSupplierName;\r\n        //batches[i].quality = _quality;\r\n        batches[i].status = _status ;\r\n    }\r\n    \r\n    function getQuantity(uint _batchId) public view returns(uint){\r\n        return batches[_batchId].numberOfUnits;\r\n    }\r\n    \r\n    function updateQuantity(uint _batchId, uint _quantity) public returns (bool){\r\n        batches[_batchId].numberOfUnits -= _quantity;\r\n    }\r\n}",
  "sourcePath": "C:\\Users\\Dhwani\\Desktop\\project\\Medicine_SCM\\contracts\\Manufacturer.sol",
  "compiler": {
    "name": "solc",
    "version": "0.5.8+commit.23d335f2.Emscripten.clang"
  },
  "schemaVersion": "3.0.11",
  "updatedAt": "2019-10-05T17:48:45.298Z",
  "devdoc": {
    "methods": {}
  },
  "userdoc": {
    "methods": {}
  }
}