{
  "contractName": "Pharma",
  "abi": [
    {
      "constant": true,
      "inputs": [
        {
          "name": "",
          "type": "uint256"
        }
      ],
      "name": "Lots",
      "outputs": [
        {
          "name": "BatchId",
          "type": "uint256"
        },
        {
          "name": "updatedPrice",
          "type": "uint256"
        },
        {
          "name": "quantity",
          "type": "uint256"
        }
      ],
      "payable": false,
      "stateMutability": "view",
      "type": "function"
    },
    {
      "constant": false,
      "inputs": [
        {
          "name": "_manufacturer",
          "type": "address"
        }
      ],
      "name": "giveInstance",
      "outputs": [],
      "payable": false,
      "stateMutability": "nonpayable",
      "type": "function"
    },
    {
      "constant": false,
      "inputs": [
        {
          "name": "_quantity",
          "type": "uint256"
        },
        {
          "name": "_batchId",
          "type": "uint256"
        },
        {
          "name": "_updatedPrice",
          "type": "uint256"
        }
      ],
      "name": "creatLot",
      "outputs": [
        {
          "name": "",
          "type": "bool"
        }
      ],
      "payable": false,
      "stateMutability": "nonpayable",
      "type": "function"
    }
  ],
  "bytecode": "0x6080604052600060015534801561001557600080fd5b50610419806100256000396000f3fe608060405234801561001057600080fd5b50600436106100415760003560e01c80637ff415b214610046578063a3a0c7401461008a578063eb5ac198146100e4575b600080fd5b6100886004803603602081101561005c57600080fd5b81019080803573ffffffffffffffffffffffffffffffffffffffff169060200190929190505050610134565b005b6100ca600480360360608110156100a057600080fd5b81019080803590602001909291908035906020019092919080359060200190929190505050610177565b604051808215151515815260200191505060405180910390f35b610110600480360360208110156100fa57600080fd5b81019080803590602001909291905050506103c3565b60405180848152602001838152602001828152602001935050505060405180910390f35b806000806101000a81548173ffffffffffffffffffffffffffffffffffffffff021916908373ffffffffffffffffffffffffffffffffffffffff16021790555050565b60008060009054906101000a900473ffffffffffffffffffffffffffffffffffffffff1673ffffffffffffffffffffffffffffffffffffffff16635ebd9ded846040518263ffffffff1660e01b81526004018082815260200191505060206040518083038186803b1580156101eb57600080fd5b505afa1580156101ff573d6000803e3d6000fd5b505050506040513d602081101561021557600080fd5b810190808051906020019092919050505084111561029b576040517f08c379a00000000000000000000000000000000000000000000000000000000081526004018080602001828103825260108152602001807f68616e646c696e6720726571756972650000000000000000000000000000000081525060200191505060405180910390fd5b6001600081548092919060010191905055508260026000600154815260200190815260200160002060000181905550816002600060015481526020019081526020016000206001018190555083600260006001548152602001908152602001600020600201819055506000809054906101000a900473ffffffffffffffffffffffffffffffffffffffff1673ffffffffffffffffffffffffffffffffffffffff166379cd492184866040518363ffffffff1660e01b81526004018083815260200182815260200192505050602060405180830381600087803b15801561038057600080fd5b505af1158015610394573d6000803e3d6000fd5b505050506040513d60208110156103aa57600080fd5b8101908080519060200190929190505050509392505050565b6002602052806000526040600020600091509050806000015490806001015490806002015490508356fea165627a7a72305820989c9d1493a07b103ab961b651b7ef2104513bf8fcba170c898cf103e73f34e60029",
  "source": "pragma solidity >=0.4.22 <0.6.0;\r\nimport \"./Manufacturer.sol\";\r\n\r\ncontract Pharma{\r\n    struct lot{\r\n        uint BatchId;\r\n        uint updatedPrice;\r\n        uint quantity;\r\n    }\r\n    \r\n    Manufacturer manufacturer;\r\n    uint i = 0;\r\n    function giveInstance(address _manufacturer) public{\r\n        manufacturer = Manufacturer(_manufacturer);\r\n    }\r\n    \r\n    mapping(uint=>lot) public Lots;\r\n    \r\n    function creatLot(uint _quantity, uint _batchId, uint _updatedPrice) public returns(bool){\r\n        require(_quantity <= manufacturer.getQuantity(_batchId), \"handling require\");\r\n        i++;\r\n        Lots[i].BatchId = _batchId;\r\n        Lots[i].updatedPrice = _updatedPrice;\r\n        Lots[i].quantity = _quantity;\r\n        manufacturer.updateQuantity(_batchId, _quantity);\r\n    }\r\n}",
  "sourcePath": "C:/Users/Dhwani/Desktop/project/Medicine_SCM/contracts/Pharma.sol",
  "compiler": {
    "name": "solc",
    "version": "0.5.8+commit.23d335f2.Emscripten.clang"
  },
  "schemaVersion": "3.0.11",
  "updatedAt": "2019-10-05T17:48:45.307Z",
  "devdoc": {
    "methods": {}
  },
  "userdoc": {
    "methods": {}
  }
}