{
  "contractName": "Warehouse",
  "abi": [
    {
      "constant": true,
      "inputs": [
        {
          "name": "",
          "type": "uint256"
        }
      ],
      "name": "warehouses",
      "outputs": [
        {
          "name": "batchId",
          "type": "uint256"
        },
        {
          "name": "updatedPrice",
          "type": "uint256"
        },
        {
          "name": "location",
          "type": "string"
        },
        {
          "name": "owner",
          "type": "address"
        },
        {
          "name": "warehouseName",
          "type": "string"
        },
        {
          "name": "capacity",
          "type": "uint256"
        },
        {
          "name": "incomingDate",
          "type": "uint256"
        },
        {
          "name": "outgoingDate",
          "type": "uint256"
        }
      ],
      "payable": false,
      "stateMutability": "view",
      "type": "function"
    },
    {
      "inputs": [],
      "payable": false,
      "stateMutability": "nonpayable",
      "type": "constructor"
    },
    {
      "constant": false,
      "inputs": [
        {
          "name": "_batchId",
          "type": "uint256"
        },
        {
          "name": "_updatedPrice",
          "type": "uint256"
        },
        {
          "name": "_location",
          "type": "string"
        },
        {
          "name": "_warehouseName",
          "type": "string"
        },
        {
          "name": "_capacity",
          "type": "uint256"
        },
        {
          "name": "_incomingDate",
          "type": "uint256"
        },
        {
          "name": "_outgoingDate",
          "type": "uint256"
        }
      ],
      "name": "addToWarehouse",
      "outputs": [],
      "payable": false,
      "stateMutability": "nonpayable",
      "type": "function"
    }
  ],
  "bytecode": "0x6080604052600060015534801561001557600080fd5b506106e6806100256000396000f3fe608060405234801561001057600080fd5b50600436106100365760003560e01c806383c30fa01461003b578063859f12cb146101a4575b600080fd5b6100676004803603602081101561005157600080fd5b8101908080359060200190929190505050610328565b60405180898152602001888152602001806020018773ffffffffffffffffffffffffffffffffffffffff1673ffffffffffffffffffffffffffffffffffffffff16815260200180602001868152602001858152602001848152602001838103835289818151815260200191508051906020019080838360005b838110156100fb5780820151818401526020810190506100e0565b50505050905090810190601f1680156101285780820380516001836020036101000a031916815260200191505b50838103825287818151815260200191508051906020019080838360005b83811015610161578082015181840152602081019050610146565b50505050905090810190601f16801561018e5780820380516001836020036101000a031916815260200191505b509a505050505050505050505060405180910390f35b610326600480360360e08110156101ba57600080fd5b810190808035906020019092919080359060200190929190803590602001906401000000008111156101eb57600080fd5b8201836020820111156101fd57600080fd5b8035906020019184600183028401116401000000008311171561021f57600080fd5b91908080601f016020809104026020016040519081016040528093929190818152602001838380828437600081840152601f19601f8201169050808301925050505050505091929192908035906020019064010000000081111561028257600080fd5b82018360208201111561029457600080fd5b803590602001918460018302840111640100000000831117156102b657600080fd5b91908080601f016020809104026020016040519081016040528093929190818152602001838380828437600081840152601f19601f8201169050808301925050505050505091929192908035906020019092919080359060200190929190803590602001909291905050506104c0565b005b6000602052806000526040600020600091509050806000015490806001015490806002018054600181600116156101000203166002900480601f0160208091040260200160405190810160405280929190818152602001828054600181600116156101000203166002900480156103e05780601f106103b5576101008083540402835291602001916103e0565b820191906000526020600020905b8154815290600101906020018083116103c357829003601f168201915b5050505050908060030160009054906101000a900473ffffffffffffffffffffffffffffffffffffffff1690806004018054600181600116156101000203166002900480601f0160208091040260200160405190810160405280929190818152602001828054600181600116156101000203166002900480156104a45780601f10610479576101008083540402835291602001916104a4565b820191906000526020600020905b81548152906001019060200180831161048757829003601f168201915b5050505050908060050154908060060154908060070154905088565b60016000815480929190600101919050555086600080600154815260200190815260200160002060000181905550856000806001548152602001908152602001600020600101819055508460008060015481526020019081526020016000206002019080519060200190610535929190610615565b508360008060015481526020019081526020016000206004019080519060200190610561929190610615565b5082600080600154815260200190815260200160002060050181905550816000806001548152602001908152602001600020600601819055508060008060015481526020019081526020016000206007018190555033600080600154815260200190815260200160002060030160006101000a81548173ffffffffffffffffffffffffffffffffffffffff021916908373ffffffffffffffffffffffffffffffffffffffff16021790555050505050505050565b828054600181600116156101000203166002900490600052602060002090601f016020900481019282601f1061065657805160ff1916838001178555610684565b82800160010185558215610684579182015b82811115610683578251825591602001919060010190610668565b5b5090506106919190610695565b5090565b6106b791905b808211156106b357600081600090555060010161069b565b5090565b9056fea165627a7a723058209620841131bb68269c8b7af2a93ceace4934455d083d712849690c65c21d21110029",
  "source": "pragma solidity ^0.5.0;\r\n\r\ncontract Warehouse{\r\n    \r\n    \r\n    constructor() public{\r\n        \r\n    }\r\n\r\n    struct warehouse{\r\n        uint batchId;\r\n        uint updatedPrice;\r\n        string location;\r\n        address owner;\r\n        string warehouseName;\r\n        uint capacity;\r\n        uint256 incomingDate;\r\n        uint256 outgoingDate;\r\n    }\r\n    \r\n    mapping(uint => warehouse) public warehouses;\r\n    uint nextId = 0;\r\n    function addToWarehouse(uint _batchId, uint _updatedPrice, string memory _location, string memory _warehouseName, uint _capacity, uint256 _incomingDate, uint256 _outgoingDate) public {\r\n        nextId++;\r\n        warehouses[nextId].batchId = _batchId;\r\n        warehouses[nextId].updatedPrice = _updatedPrice;\r\n        warehouses[nextId].location = _location;\r\n        warehouses[nextId].warehouseName = _warehouseName;\r\n        warehouses[nextId].capacity = _capacity;\r\n        warehouses[nextId].incomingDate = _incomingDate;\r\n        warehouses[nextId].outgoingDate = _outgoingDate;\r\n        warehouses[nextId].owner = msg.sender;\r\n    }  \r\n}\r\n",
  "sourcePath": "C:/Users/Dhwani/Desktop/project/Medicine_SCM/contracts/Warehouse.sol",
  "compiler": {
    "name": "solc",
    "version": "0.5.8+commit.23d335f2.Emscripten.clang"
  },
  "schemaVersion": "3.0.11",
  "updatedAt": "2019-10-06T02:15:16.189Z",
  "devdoc": {
    "methods": {}
  },
  "userdoc": {
    "methods": {}
  }
}