{
  "contractName": "Wholesaler",
  "abi": [
    {
      "constant": true,
      "inputs": [
        {
          "name": "",
          "type": "uint256"
        }
      ],
      "name": "wholesalers",
      "outputs": [
        {
          "name": "batch_id",
          "type": "uint256"
        },
        {
          "name": "incoming_date",
          "type": "uint256"
        },
        {
          "name": "outgoing_date",
          "type": "uint256"
        },
        {
          "name": "wholesaler",
          "type": "address"
        },
        {
          "name": "updated_price",
          "type": "uint256"
        }
      ],
      "payable": false,
      "stateMutability": "view",
      "type": "function"
    },
    {
      "constant": false,
      "inputs": [
        {
          "name": "_batchId",
          "type": "uint256"
        },
        {
          "name": "_incoming",
          "type": "uint256"
        },
        {
          "name": "_outgoing",
          "type": "uint256"
        },
        {
          "name": "_price",
          "type": "uint256"
        }
      ],
      "name": "add_Wholesaler",
      "outputs": [],
      "payable": false,
      "stateMutability": "nonpayable",
      "type": "function"
    }
  ],
  "bytecode": "0x608060405234801561001057600080fd5b50610255806100206000396000f3fe608060405234801561001057600080fd5b50600436106100365760003560e01c80637a96107c1461003b578063fc23328c14610087575b600080fd5b6100856004803603608081101561005157600080fd5b8101908080359060200190929190803590602001909291908035906020019092919080359060200190929190505050610111565b005b6100b36004803603602081101561009d57600080fd5b81019080803590602001909291905050506101d3565b604051808681526020018581526020018481526020018373ffffffffffffffffffffffffffffffffffffffff1673ffffffffffffffffffffffffffffffffffffffff1681526020018281526020019550505050505060405180910390f35b8360008086815260200190815260200160002060000181905550816000808681526020019081526020016000206002018190555082600080868152602001908152602001600020600101819055503360008086815260200190815260200160002060030160006101000a81548173ffffffffffffffffffffffffffffffffffffffff021916908373ffffffffffffffffffffffffffffffffffffffff160217905550806000808681526020019081526020016000206004018190555050505050565b60006020528060005260406000206000915090508060000154908060010154908060020154908060030160009054906101000a900473ffffffffffffffffffffffffffffffffffffffff1690806004015490508556fea165627a7a7230582071c35cb6ace525e221f34dc37954d83af4de2cd8e1a7f1320988c5adc0e7e00f0029",
  "source": "pragma solidity >=0.4.22 <0.6.0;\r\n\r\ncontract Wholesaler {\r\n\r\n   struct wholesaler{\r\n        uint batch_id;\r\n        uint256 incoming_date ;\r\n        uint256 outgoing_date ;\r\n        address wholesaler;\r\n        uint updated_price;\r\n    }\r\n    \r\n    mapping(uint=> wholesaler) public wholesalers;\r\n    \r\n    \r\n    function add_Wholesaler(uint _batchId ,uint256 _incoming,uint256 _outgoing,uint _price) public {\r\n        wholesalers[_batchId].batch_id = _batchId;\r\n        wholesalers[_batchId].outgoing_date = _outgoing;\r\n        wholesalers[_batchId].incoming_date = _incoming;\r\n        wholesalers[_batchId].wholesaler = msg.sender;\r\n        wholesalers[_batchId].updated_price=_price;\r\n    }\r\n}",
  "sourcePath": "C:/Users/Dhwani/Desktop/project/Medicine_SCM/contracts/Wholesaler.sol",
  "compiler": {
    "name": "solc",
    "version": "0.5.8+commit.23d335f2.Emscripten.clang"
  },
  "schemaVersion": "3.0.11",
  "updatedAt": "2019-10-05T13:05:14.353Z",
  "devdoc": {
    "methods": {}
  },
  "userdoc": {
    "methods": {}
  }
}