{
  "contractName": "Wholesaler",
  "abi": [
    {
      "constant": true,
      "inputs": [
        {
          "name": "",
          "type": "uint256"
        }
      ],
      "name": "wholesalers",
      "outputs": [
        {
          "name": "batch_id",
          "type": "uint256"
        },
        {
          "name": "incoming_date",
          "type": "uint256"
        },
        {
          "name": "outgoing_date",
          "type": "uint256"
        },
        {
          "name": "wholesaler",
          "type": "address"
        },
        {
          "name": "updated_price",
          "type": "uint256"
        },
        {
          "name": "status",
          "type": "string"
        }
      ],
      "payable": false,
      "stateMutability": "view",
      "type": "function"
    },
    {
      "constant": false,
      "inputs": [
        {
          "name": "_batchId",
          "type": "uint256"
        },
        {
          "name": "_incoming",
          "type": "uint256"
        },
        {
          "name": "_outgoing",
          "type": "uint256"
        },
        {
          "name": "_price",
          "type": "uint256"
        },
        {
          "name": "_status",
          "type": "string"
        }
      ],
      "name": "add_Wholesaler",
      "outputs": [],
      "payable": false,
      "stateMutability": "nonpayable",
      "type": "function"
    }
  ],
  "bytecode": "0x608060405234801561001057600080fd5b506104c6806100206000396000f3fe608060405234801561001057600080fd5b50600436106100365760003560e01c806301aae7c41461003b578063fc23328c1461011e575b600080fd5b61011c600480360360a081101561005157600080fd5b81019080803590602001909291908035906020019092919080359060200190929190803590602001909291908035906020019064010000000081111561009657600080fd5b8201836020820111156100a857600080fd5b803590602001918460018302840111640100000000831117156100ca57600080fd5b91908080601f016020809104026020016040519081016040528093929190818152602001838380828437600081840152601f19601f820116905080830192505050505050509192919290505050610214565b005b61014a6004803603602081101561013457600080fd5b8101908080359060200190929190505050610301565b604051808781526020018681526020018581526020018473ffffffffffffffffffffffffffffffffffffffff1673ffffffffffffffffffffffffffffffffffffffff16815260200183815260200180602001828103825283818151815260200191508051906020019080838360005b838110156101d45780820151818401526020810190506101b9565b50505050905090810190601f1680156102015780820380516001836020036101000a031916815260200191505b5097505050505050505060405180910390f35b8460008087815260200190815260200160002060000181905550826000808781526020019081526020016000206002018190555083600080878152602001908152602001600020600101819055503360008087815260200190815260200160002060030160006101000a81548173ffffffffffffffffffffffffffffffffffffffff021916908373ffffffffffffffffffffffffffffffffffffffff16021790555081600080878152602001908152602001600020600401819055508060008087815260200190815260200160002060050190805190602001906102f99291906103f5565b505050505050565b60006020528060005260406000206000915090508060000154908060010154908060020154908060030160009054906101000a900473ffffffffffffffffffffffffffffffffffffffff1690806004015490806005018054600181600116156101000203166002900480601f0160208091040260200160405190810160405280929190818152602001828054600181600116156101000203166002900480156103eb5780601f106103c0576101008083540402835291602001916103eb565b820191906000526020600020905b8154815290600101906020018083116103ce57829003601f168201915b5050505050905086565b828054600181600116156101000203166002900490600052602060002090601f016020900481019282601f1061043657805160ff1916838001178555610464565b82800160010185558215610464579182015b82811115610463578251825591602001919060010190610448565b5b5090506104719190610475565b5090565b61049791905b8082111561049357600081600090555060010161047b565b5090565b9056fea165627a7a723058204d628b0078c2cdeff702547aa300d591320da8292d01ffc03b5a64ea86f6c6e90029",
  "source": "pragma solidity >=0.4.22 <0.6.0;\r\n\r\ncontract Wholesaler {\r\n\r\n   struct wholesaler{\r\n        uint batch_id;\r\n        uint256 incoming_date ;\r\n        uint256 outgoing_date ;\r\n        address wholesaler;\r\n        uint updated_price;\r\n        string status;\r\n    }\r\n    \r\n    mapping(uint=> wholesaler) public wholesalers;\r\n    \r\n    \r\n    function add_Wholesaler(uint _batchId ,uint256 _incoming,uint256 _outgoing,uint _price, string memory _status) public {\r\n        wholesalers[_batchId].batch_id = _batchId;\r\n        wholesalers[_batchId].outgoing_date = _outgoing;\r\n        wholesalers[_batchId].incoming_date = _incoming;\r\n        wholesalers[_batchId].wholesaler = msg.sender;\r\n        wholesalers[_batchId].updated_price=_price;\r\n        wholesalers[_batchId].status = _status;\r\n    }\r\n}",
  "sourcePath": "C:/Users/Dhwani/Desktop/project/Medicine_SCM/contracts/Wholesaler.sol",
  "compiler": {
    "name": "solc",
    "version": "0.5.8+commit.23d335f2.Emscripten.clang"
  },
  "schemaVersion": "3.0.11",
  "updatedAt": "2019-10-06T05:34:37.051Z",
  "devdoc": {
    "methods": {}
  },
  "userdoc": {
    "methods": {}
  }
}